:040000000DEF00F010
:0400080083EF16F07C
:06001800FF00E9EF15F006
:1020000000000000000000000000EE2F00000000B3
:10201000182F000000000000000000000000000079
:1020200000000000000000000000000000000000B0
:1020300000000000000000000000000000000000A0
:10204000000000000000000000434F554E54532094
:1020500052455345542020202000544152474554B6
:102060002031204849542120202000544152474526
:102070005420322048495421202020005441524706
:1020800045542033204849542120202000546F74A7
:10209000616C20486974733A203020202000546F0E
:1020A00074616C20486974733A2025642020000014
:1020B0003901DC8D020EDF6F3A01506B706BC36A21
:1020C000C590C592BB6AC280C282C294C28640815A
:1020D000408340954097606BC494C496C2EC17F05F
:1020E000FBEC17F0A0EC17F0DDEC17F0E8EC17F0C4
:1020F000026A2E0E016E15EC17F0026A2E0E016EAA
:102100002DEC17F0030E2B6E8A0E2A6E560EE82E5B
:10211000FED72A2EFCD72B2EFAD739EC14F0820EDC
:102120002A6EDE0EE82EFED72A2EFCD7000E056E94
:102130008D0E066E0650D8A4200E076E010EC8EC58
:1021400016F020EC16F0D1EC17F0BA84820E2A6E4D
:10215000DE0EE82EFED72A2EFCD7BA94060E2B6E82
:10216000130E2A6EAE0EE82EFED72A2EFCD72B2E8B
:10217000FAD7000E5DEC17F001C051F002C052F02A
:10218000010E5DEC17F001C04FF002C050F0000EE0
:10219000CDB6010E5A6E000ECAB6010E596E590424
:1021A000D8A4D5EF10F0D7EF10F00FEF11F0566A6A
:1021B000000E556E546A000E536E00018F6B000EB8
:1021C0008E6F8D6B000E8C6F000E056E8D0E066E81
:1021D0000650D8A4200E076E010EC8EC16F0000EB3
:1021E000056E490E066E0650D8A4200E076E020E2C
:1021F000C8EC16F0BA84820E2A6EDE0EE82EFED7E8
:102200002A2EFCD7BA94020E2B6E860E2A6E990ED9
:10221000E82EFED72A2EFCD72B2EFAD700005250DC
:1022200007E1320E515CD8B018EF11F01AEF11F03F
:1022300045EF11F05EBE28EF11F05E5007E14C0E45
:102240005D5CD8B026EF11F028EF11F0CCEF11F063
:10225000030E5D26000E5E225EBE38EF11F05E506A
:1022600009E14D0E5D5CD8A038EF11F03AEF11F0A6
:102270003DEF11F05E6A4C0E5D6E5DC001F05EC018
:1022800002F015EC17F0CCEF11F09E0E515C070E2A
:102290005258D8B04EEF11F050EF11F070EF11F02E
:1022A0005EBE5EEF11F05E5007E14C0E5D5CD8B093
:1022B0005CEF11F05EEF11F0CCEF11F05D4A5E2A99
:1022C0005EBE6CEF11F05E5009E14D0E5D5CD8A072
:1022D0006CEF11F06EEF11F03DEF11F03AEF11F0ED
:1022E000A10E515C0F0E5258D8A079EF11F07BEF80
:1022F00011F0A0EF11F05EBE87EF11F05E5009E122
:10230000110E5D5CD8A087EF11F089EF11F0CCEFD2
:1023100011F0FD0E5D26FF0E5E225EBE9BEF11F0FA
:102320005E5007E1100E5D5CD8B099EF11F09BEFA5
:1023300011F03DEF11F05E6A100E5D6E3DEF11F091
:10234000990E515C080E5258D8A0A9EF11F0ABEFCE
:1023500011F0CCEF11F05EBEB7EF11F05E5009E165
:10236000110E5D5CD8A0B7EF11F0B9EF11F0CCEF12
:1023700011F05D06D8A05E065EBECAEF11F05E5099
:1023800007E1100E5D5CD8B0C8EF11F0CAEF11F094
:102390003DEF11F09BEF11F0505007E1320E4F5C12
:1023A000D8B0D5EF11F0D7EF11F002EF12F05CBE0C
:1023B000E5EF11F05C5007E14C0E5B5CD8B0E3EF49
:1023C00011F0E5EF11F089EF12F0030E5B26000E1D
:1023D0005C225CBEF5EF11F05C5009E14D0E5B5CD8
:1023E000D8A0F5EF11F0F7EF11F0FAEF11F05C6AF9
:1023F0004C0E5B6E5BC001F05CC002F02DEC17F080
:1024000089EF12F0D00E4F5C070E5058D8B00BEF8A
:1024100012F00DEF12F02DEF12F05CBE1BEF12F078
:102420005C5007E14C0E5B5CD8B019EF12F01BEF6B
:1024300012F089EF12F05B4A5C2A5CBE29EF12F0C1
:102440005C5009E14D0E5B5CD8A029EF12F02BEF38
:1024500012F0FAEF11F0F7EF11F0A10E4F5C0F0E32
:102460005058D8A036EF12F038EF12F05DEF12F0AE
:102470005CBE44EF12F05C5009E1110E5B5CD8A029
:1024800044EF12F046EF12F089EF12F0FD0E5B26DA
:10249000FF0E5C225CBE58EF12F05C5007E1100E9C
:1024A0005B5CD8B056EF12F058EF12F0FAEF11F073
:1024B0005C6A100E5B6EFAEF11F0990E4F5C080E1D
:1024C0005058D8A066EF12F068EF12F089EF12F0C2
:1024D0005CBE74EF12F05C5009E1110E5B5CD8A099
:1024E00074EF12F076EF12F089EF12F05B06D8A0CD
:1024F0005C065CBE87EF12F05C5007E1100E5B5C7F
:10250000D8B085EF12F087EF12F0FAEF11F058EF24
:1025100012F0C30E2A6ECD0EE82EFED72A2EFCD75F
:102520000000CDA896EF12F098EF12F0D2EF12F063
:1025300053505410D8A49FEF12F0A1EF12F0D2EF35
:1025400012F0554A562A546A010E536E55C001F0D6
:1025500056C002F052EC16F02C0E1A6E9E0E1B6E38
:1025600055C01CF056C01DF0FDEC16F0000E056EB7
:102570002C0E066E076A010EC8EC16F0000E056EF2
:102580005A0E066E0650D8A4200E076E020EC8EC36
:1025900016F0820E2A6EDE0EE82EFED72A2EFCD70B
:1025A000B9EF10F0CDAAD7EF12F0D9EF12F014EF77
:1025B00013F000018E518F11D8A4E1EF12F0E3EF78
:1025C00012F014EF13F0554A562A8F6B010E8E6FDE
:1025D00055C001F056C002F052EC16F02C0E1A6EE7
:1025E0009E0E1B6E55C01CF056C01DF0FDEC16F083
:1025F000000E056E2C0E066E076A010EC8EC16F072
:10260000000E056E6B0E066E0650D8A4200E076EE7
:10261000020EC8EC16F0A90E2A6ED40EE82EFED7D4
:102620002A2EFCD7B9EF10F0CDAC19EF13F01BEF49
:1026300013F0B9EF10F000018C518D11D8A423EFE5
:1026400013F025EF13F0B9EF10F0554A562A8D6BB1
:10265000010E8C6F55C001F056C002F052EC16F01E
:102660002C0E1A6E9E0E1B6E55C01CF056C01DF02F
:10267000FDEC16F0000E056E2C0E066E076A010EBC
:10268000C8EC16F0000E056E7C0E066E0650D8A43F
:10269000200E076E020EC8EC16F00BEF13F00DEFD4
:1026A00000F00C50D96EDA6A6F007FFFF6FF200E43
:1026B000F76E000EF86E0800F550250AD8A463EFF7
:1026C00013F065EF13F024EF14F00C50D96EDA6AB2
:1026D000DF2A0001876B000E866F86C057F088697D
:1026E00089690C50D96EDA6ADF50106E600043F0D1
:1026F000F6FF200EF76E000EF86E0800F550640A23
:10270000D8B485EF13F087EF13F098EF13F0600063
:1027100043F0F6FF200EF76E000EF86E0800F5503D
:10272000690AD8A496EF13F098EF13F01EEF14F097
:102730000D50D96EDA6A020EDF26DF5CD96EDA6AD6
:102740006F0078FF11F06F0078FF12F00C50D96E17
:10275000DA6A1028DF6E200E156E12BEB2EF13F08B
:10276000B5EF13F0010EB6EF13F0000E0F6E150665
:102770001550600FD96EDA6A11C001F012C002F074
:10278000046A0A0E036E03EC15F001C007F002C0E4
:1027900008F0E3EC16F00750300FDF6E11C001F0C7
:1027A00012C002F0046A0A0E036EA3EC14F001C01A
:1027B00011F002C012F011501210D8B4E2EF13F071
:1027C000E4EF13F0ECEF13F01550D8A4EAEF13F098
:1027D000ECEF13F0B7EF13F01550D8B4F2EF13F09D
:1027E000F4EF13F013EF14F00F50D8B4FAEF13F026
:1027F000FCEF13F013EF14F015061550600FD96EAF
:10280000DA6A2D0EDF6E13EF14F01550600FD96EDB
:10281000DA6ADF500E6E0E50036E046A0BC005F0CC
:102820005AEC15F0152A200E1518D8A41AEF14F03A
:102830001CEF14F005EF14F038EF14F00C50D96EC3
:10284000DA6ADF2A38EF14F00C50D96EDA6A6F00BA
:102850007FFFF6FF200EF76E000EF86E0800F550B1
:10286000036E046A0BC005F05AEC15F01EEF14F06D
:102870001200030E046E8A0E036E560EE82EFED76B
:10288000032EFCD7042EFAD7BD90BD92BB6A410E31
:10289000036EEE0EE82EFED7032EFCD700D0300ECE
:1028A00045EC17F00D0E036EFC0EE82EFED7032E3E
:1028B000FCD7300E45EC17F00D0E036EFC0EE82E23
:1028C000FED7032EFCD7300E45EC17F00D0E036E2D
:1028D000FC0EE82EFED7032EFCD7380E45EC17F081
:1028E0000D0E036EFC0EE82EFED7032EFCD7080E4D
:1028F00045EC17F0070E036E7D0EE82EFED7032E73
:10290000FCD70000010E45EC17F00D0E036EFC0E17
:10291000E82EFED7032EFCD7060E45EC17F0070E67
:10292000036E7D0EE82EFED7032EFCD700000C0EA2
:1029300045EC17F0070E036E7D0EE82EFED7032E32
:10294000FCD700001200066A04BEABEF14F0A9EF3A
:1029500014F0B1EF14F0036C041ED8B0042A010E79
:10296000066E02BEB8EF14F0B6EF14F0BEEF14F02E
:10297000016C021ED8B0022A010E061A086A000E67
:10298000076E03500410D8B4C8EF14F0CAEF14F067
:10299000F2EF14F0010E056ED2EF14F0D89003366A
:1029A0000436052A04AED7EF14F0D9EF14F0CEEFB9
:1029B00014F0D890073608360350015C04500258D2
:1029C000D8A0E5EF14F0E7EF14F0ECEF14F00350AB
:1029D000015E0450025A0780D89004320332052E5B
:1029E000D9EF14F00650D8B4F8EF14F0FAEF14F061
:1029F000FEEF14F0076C081ED8B0082A07C001F0DB
:102A000008C002F01200066A02BE0BEF15F009EFD3
:102A100015F011EF15F0016C021ED8B0022A010E5C
:102A2000066E04BE18EF15F016EF15F01CEF15F04A
:102A3000036C041ED8B0042A03500410D8B423EF4A
:102A400015F025EF15F049EF15F0010E056E2DEF8D
:102A500015F0D89003360436052A04AE32EF15F08F
:102A600034EF15F029EF15F00350015C04500258C3
:102A7000D8A03DEF15F03FEF15F043EF15F00350F0
:102A8000015E0450025AD89004320332052E34EF0E
:102A900015F00650D8B44FEF15F051EF15F055EF83
:102AA00015F0016C021ED8B0022A01C001F002C06C
:102AB00002F012000550D8B460EF15F062EF15F087
:102AC0006AEF15F00550D8A468EF15F06AEF15F01D
:102AD0006FEF15F00350B2EC17F0AFEF15F00550A3
:102AE000D96EDA6A090ED926DE50DE10D8B47BEF33
:102AF00015F07DEF15F096EF15F00550D96EDA6AF6
:102B0000090ED9260550E16EE26A020EE126DE507A
:102B1000E65CE650800A0A6EDE50800A0A58D8B099
:102B200094EF15F096EF15F0AFEF15F00550D96E54
:102B3000DA6A020ED926DF50066E0550D96EDA6ABF
:102B4000DF500624D96EDA6A60000FF0DFFF05500F
:102B5000D96EDA6A020ED926DE2A000EDD221200B4
:102B6000CBEF15F060000FF0F6FF600013F0F7FFF9
:102B7000000EF86E1F0EF76403D00800F55007D062
:102B80006F00DBFFE9FF6F00DFFFEAFFEF5075EC3E
:102B900017F0034A042A60000FF0F6FF600013F0FC
:102BA000F7FF000EF86E1F0EF76403D00800F55013
:102BB00007D06F00DBFFE9FF6F00DFFFEAFFEF5098
:102BC0000009D8A4E6EF15F0E8EF15F0B2EF15F024
:102BD0001200E60EF66E2F0EF76E000EF86E00EE87
:102BE00098F010EE08F009006F00D7FFEEFFE550F7
:102BF000E150F9E1080EF66E300EF76E000EF86E39
:102C000000EE5BF010EE04F009006F00D7FFEEFF5E
:102C1000E550E150F9E100EE60F0380EEE6AE806AA
:102C2000FDE100EE3DF01E0EEE6AE806FDE1080E45
:102C3000D56E000ED66E000ED76E000158EF10F064
:102C40003E01F89FDE6BDF6BE06BE16BE46BE56BE5
:102C5000EA6BEC6BF16BF36BF46BD76BF56BF66BAC
:102C6000F76BF96B180EFA6F100EFB6FFC6BFD6BB8
:102C70001F0EFF6FFE6B000E0001836F000E846F4E
:102C8000000E856F000E806F000E816F000E826F48
:102C9000586A3901A1959195A1979197840E3E01AB
:102CA000F86F1200066A000E056E73EF16F0BA8414
:102CB000020E046E040E036EBA0EE82EFED7032E2B
:102CC000FCD7042EFAD700D0BA94020E046E040E7C
:102CD000036EBA0EE82EFED7032EFCD7042EFAD7C9
:102CE00000D0054A062A0150055C0650800A036E92
:102CF0000250800A0358D8A080EF16F082EF16F039
:102D000057EF16F01200390191A589EF16F08BEFFD
:102D100016F096EF16F0A1A590EF16F092EF16F0D0
:102D200096EF16F001EC18F0A6EF16F091A79BEFC6
:102D300016F09DEF16F0A6EF16F0A1A7A2EF16F081
:102D4000A4EF16F0A6EF16F0FEEC17F0110017C076
:102D500019F0B3EF16F016C00BF0190E0C6E18C078
:102D60000DF051EC13F0600067F0F6FF200EF76EE7
:102D7000000EF86E0800F5500009D8A4C2EF16F056
:102D8000C4EF16F0ABEF16F0176A000E166E1200C5
:102D9000086E0804D8A4CFEF16F0D1EF16F0D6EFE6
:102DA00016F00550800F096ED9EF16F00550C00FD0
:102DB000096E095045EC17F006C003F007C004F097
:102DC000B0EC15F0120008BEE8EF16F0EAEF16F0CE
:102DD000F0EF16F007C007F008C008F0FCEF16F09F
:102DE00007C009F008C00AF0091E0A1E094A0A2A8B
:102DF00009C007F00AC008F012001C0E1E6E1AC0AF
:102E00001FF0226A000E216E296A000E286E1F0E26
:102E1000166E1BC017F01E0E186EA7EC16F01A5097
:102E20002124D96EDA6ADF6A1200FF0E0116030E42
:102E300002167AA81EEF17F020EF17F027EF17F011
:102E4000060ED89001360236E82E21EF17F0025018
:102E5000796E600007F078FF1200FF0E0116030E76
:102E600002167EA836EF17F038EF17F03FEF17F095
:102E7000060ED89001360236E82E39EF17F00250D0
:102E80007D6E600007F07CFF1200026E60000BF0A8
:102E9000BBFFBD90C80E00D0E82EFDD7BD82C80E86
:102EA00000D0E82EFDD7BD92040E016EE40EE82E90
:102EB000FED7012EFCD700D01200056E600017F07F
:102EC000F1FE3E01F89DF881F8B169EF17F06BEF64
:102ED00017F064EF17F0F051046E036AEF5103240A
:102EE000016E000E0420026E1200026E60000BF0F4
:102EF000BBFFBD80C80E00D0E82EFDD7BD82C80E36
:102F000000D0E82EFDD7BD92030E016E980EE82E7C
:102F1000FED7012EFCD71200016A3D01DFAB93EF13
:102F200017F095EF17F09EEF17F0DAAB9AEF17F066
:102F30009CEF17F09EEF17F0010E016E015012008A
:102F4000550E3A01BF6FAA0EBF6FBF910A0E126FE6
:102F5000090E136F550EBF6FAA0EBF6FBF81C494C9
:102F6000C4961200026E8CEC17F00009D8B4BBEFC7
:102F700017F0BDEF17F0B3EF17F002C001F0F7EC58
:102F800017F01200010EAE6EAD6AAF6A9C0EAB6E0A
:102F9000AA6A3901A495AC8E700EAC12F00EAC1674
:102FA00012003A01706B4095C588C58AC58CC294E1
:102FB0007189718B718DCA9412008C0E7A6E796A48
:102FC0000F0E786E3F015E51F30B04095E6F120025
:102FD0008C0E7E6E7D6A0F0E7C6E3F015E51FC0B87
:102FE00001095E6F12002E0000002E00000060003C
:102FF00007F0D2FD120006EC18F012003901A1977B
:1030000012003901A19512002E002E00AC8E120084
:020000040030CA
:0A0000008FFFF7FF9FFFFFFFFFFFD8
:00000001FF
