:0400000057EF00F0C6
:100008002B002B002B002B002B002B002B002B0090
:10001800F5082B002B002B002B002B002B002B00AE
:100028002B002B002B002B002B002B002B002B0070
:100038002B002B002B002B002B002B002B002B0060
:100048002B002B002B002B002B002B002B002B0050
:100058002B002B002B002B002B002B002B002B0040
:100068002B002B002B002B002B002B002B002B0030
:100078002B002B002B002B002B002B002B002B0020
:100088002B002B002B002B002B002B002B002B0010
:100098002B002B002B002B002B002B002B002B0000
:0A00A8002B002B00FF009FEF11F06A
:102000000000CCA806EF10F008EF10F0AEEF10F0D3
:102010000250D96EDA6A0450DE1807E10550DE1866
:10202000D8A415EF10F017EF10F050EF10F0035098
:10203000D96EDA6A0650DE1807E10750DE18D8A418
:1020400024EF10F026EF10F050EF10F00150D96E91
:10205000DA6ADE04DE10D8A430EF10F032EF10F0B0
:1020600050EF10F0CA88060E096E130E086EAE0E01
:10207000E82EFED7082EFCD7092EFAD7CA980250B0
:10208000D96EDA6ADE6ADD6A0350D96EDA6ADE6A10
:10209000DD6A0150D96EDA6ADE6ADD6AA7EF10F0F8
:1020A0000150D96EDA6ADE04DE10D8A45AEF10F0BF
:1020B0005CEF10F089EF10F00250D96EDA6ADE6A38
:1020C000DD6A0350D96EDA6ADE6ADD6A0150D96EC4
:1020D000DA6ADE6ADD6ACA82020E096E040E086ED2
:1020E000BA0EE82EFED7082EFCD7092EFAD700D05C
:1020F000CA92CA86050E096E0F0E086EF10EE82E02
:10210000FED7082EFCD7092EFAD70000CA96A7EFF3
:1021100010F0CA82020E096E040E086EBA0EE82E86
:10212000FED7082EFCD7092EFAD700D0CA9201504C
:10213000D96EDA6A010EDE6E000EDD6EA7EF10F0CA
:102140000D0E086EFC0EE82EFED7082EFCD7CCB87C
:10215000ACEF10F0AEEF10F0A0EF10F01200CDECED
:1021600011F0186A010E176E1A6A010E196E206AB4
:10217000000E1F6E1C6A000E1B6E1E6A000E1D6E86
:102180003550D8B4C6EF10F0C8EF10F0CBEF10F018
:102190007BEC11F0356A1FC001F020C002F01B0E6D
:1021A000036E44EC11F01F502010D8A4DAEF10F0A9
:1021B000DCEF10F0E2EF10F01BC001F01CC002F0E9
:1021C000BAEC11F01FC001F020C002F01D0E036E2A
:1021D0000DEC11F01F0E016E1B0E026E1D0E036E34
:1021E00017C004F018C005F019C006F01AC007F0B7
:1021F00001EC10F01F042010D8A401EF11F003EF40
:1022000011F0C0EF10F01DC001F01EC002F0BAECDA
:1022100011F0C0EF10F057EF00F0CCA612EF11F064
:1022200014EF11F043EF11F001040210D8A41BEFDA
:1022300011F01DEF11F043EF11F00350D96EDA6A7F
:102240006F0078FF04F06F0074FF05F0010E0426A4
:10225000000E05220350D96EDA6A600013F0DEFF2B
:10226000600017F0DDFF3CEF11F00D0E046EFC0E68
:10227000E82EFED7042EFCD7CCB641EF11F043EF89
:1022800011F035EF11F01200CCA449EF11F04BEF33
:1022900011F07AEF11F001500210D8A452EF11F0B2
:1022A00054EF11F07AEF11F00350D96EDA6A6F0033
:1022B00078FF04F06F0074FF05F0010E0426000E95
:1022C00005220350D96EDA6A600013F0DEFF600069
:1022D00017F0DDFF73EF11F00D0E046EFC0EE82E0B
:1022E000FED7042EFCD7CCB478EF11F07AEF11F0C2
:1022F0006CEF11F01200036A000E026ECA86820EA5
:10230000016EDE0EE82EFED7012EFCD7CA96820E95
:10231000016EDE0EE82EFED7012EFCD7024A032AFC
:1023200003BE9CEF11F0035009E1040E025CD8A03B
:102330009CEF11F09EEF11F07EEF11F01200C00E35
:10234000F66E230EF76E000EF86E00EE21F010EE22
:1023500014F009006F00D7FFEEFFE550E150F9E1FE
:10236000356A080ED56E000ED66E000ED76E0001CF
:10237000AFEF10F020EE21F010EE03F0130E6F001F
:102380006FFFE3FFE806FBE20150020DF350030F7D
:10239000D96EDA6ADF50CD6E12003A01506B406B95
:1023A000706B606BC26ACA6A010EC36E1C0EC46E8B
:1023B000C56ACD6AD2803901A1919181D28E120075
:1023C0003F0006005B004F0066006D007D000700C7
:0E23D0007F006F00010E356E3901A1911100E2
:020000040030CA
:0A000000F8FFFFFF9FFFFFFFFFFF67
:00000001FF
