:0400000057EF00F0C6
:100008002B002B002B002B002B002B002B002B0090
:10001800EF082B002B002B002B002B002B002B00B4
:100028002B002B002B002B002B002B002B002B0070
:100038002B002B002B002B002B002B002B002B0060
:100048002B002B002B002B002B002B002B002B0050
:100058002B002B002B002B002B002B002B002B0040
:100068002B002B002B002B002B002B002B002B0030
:100078002B002B002B002B002B002B002B002B0020
:100088002B002B002B002B002B002B002B002B0010
:100098002B002B002B002B002B002B002B002B0000
:0A00A8002B002B00FF0094EF11F075
:102000000000CCA806EF10F008EF10F0AEEF10F0D3
:102010000550D96EDA6A0750DE1807E10850DE185D
:10202000D8A415EF10F017EF10F050EF10F0065095
:10203000D96EDA6A0950DE1807E10A50DE18D8A412
:1020400024EF10F026EF10F050EF10F00450D96E8E
:10205000DA6ADE04DE10D8A430EF10F032EF10F0B0
:1020600050EF10F0CA88060E0C6E130E0B6EAE0EFB
:10207000E82EFED70B2EFCD70C2EFAD7CA980550A7
:10208000D96EDA6ADE6ADD6A0650D96EDA6ADE6A0D
:10209000DD6A0450D96EDA6ADE6ADD6AA7EF10F0F5
:1020A0000450D96EDA6ADE04DE10D8A45AEF10F0BC
:1020B0005CEF10F089EF10F00550D96EDA6ADE6A35
:1020C000DD6A0650D96EDA6ADE6ADD6A0450D96EBE
:1020D000DA6ADE6ADD6ACA82020E0C6E040E0B6ECC
:1020E000BA0EE82EFED70B2EFCD70C2EFAD700D056
:1020F000CA92CA86050E0C6E0F0E0B6EF10EE82EFC
:10210000FED70B2EFCD70C2EFAD70000CA96A7EFED
:1021100010F0CA82020E0C6E040E0B6EBA0EE82E80
:10212000FED70B2EFCD70C2EFAD700D0CA92045043
:10213000D96EDA6A010EDE6E000EDD6EA7EF10F0CA
:102140000D0E0B6EFC0EE82EFED70B2EFCD7CCB876
:10215000ACEF10F0AEEF10F0A0EF10F01200C1ECF9
:1021600011F01B6A010E1A6E1D6A010E1C6E236AA5
:10217000000E226E1F6A000E1E6E216A000E206E77
:1021800022C004F023C005F01E0E066E39EC11F0DB
:1021900022502310D8A4CFEF10F0D1EF10F0D7EFDA
:1021A00010F01EC004F01FC005F0AEEC11F022C00C
:1021B00004F023C005F0200E066E02EC11F0220E92
:1021C000046E1E0E056E200E066E1AC007F01BC0B0
:1021D00008F01CC009F01DC00AF001EC10F0220448
:1021E0002310D8A4F6EF10F0F8EF10F0C0EF10F0C5
:1021F00020C004F021C005F0AEEC11F0C0EF10F0EB
:1022000057EF00F0CCA607EF11F009EF11F038EF0F
:1022100011F004040510D8A410EF11F012EF11F022
:1022200038EF11F00650D96EDA6A6F0078FF07F0C8
:102230006F0074FF08F0010E0726000E08220650FA
:10224000D96EDA6A60001FF0DEFF600023F0DDFF68
:1022500031EF11F00D0E076EFC0EE82EFED7072EA3
:10226000FCD7CCB636EF11F038EF11F02AEF11F0B1
:102270001200CCA43EEF11F040EF11F06FEF11F01F
:1022800004500510D8A447EF11F049EF11F06FEF9B
:1022900011F00650D96EDA6A6F0078FF07F06F0010
:1022A00074FF08F0010E0726000E08220650D96EB2
:1022B000DA6A60001FF0DEFF600023F0DDFF68EFE8
:1022C00011F00D0E076EFC0EE82EFED7072EFCD780
:1022D000CCB46DEF11F06FEF11F061EF11F012005F
:1022E000036A000E026ECA86820E016EDE0EE82EB2
:1022F000FED7012EFCD7CA96820E016EDE0EE82EA6
:10230000FED7012EFCD7024A032A03BE91EF11F03B
:10231000035009E1040E025CD8A091EF11F093EF95
:1023200011F073EF11F01200A80EF66E230EF76E87
:10233000000EF86E00EE24F010EE14F009006F00AD
:10234000D7FFEEFFE550E150F9E1080ED56E000E23
:10235000D66E000ED76E0001AFEF10F020EE24F025
:1023600010EE06F0130E6F006FFFE3FFE806FBE2CE
:102370000450020DF350060FD96EDA6ADF50CD6EAD
:1023800012003A01506B406B706B606BC26ACA6A94
:10239000010EC36E1C0EC46EC56ACD6AD2803901AF
:1023A000A1919181D28E12003F0006005B004F0088
:1023B00066006D007D0007007F006F0070EC11F07B
:0623C0003901A19111009A
:020000040030CA
:0A000000F8FFFFFF9FFFFFFFFFFF67
:00000001FF
