:0400000057EF00F0C6
:100008002B002B002B002B002B002B002B002B0090
:10001800F9082B002B002B002B002B002B002B00AA
:100028002B002B002B002B002B002B002B002B0070
:100038002B002B002B002B002B002B002B002B0060
:100048002B002B002B002B002B002B002B002B0050
:100058002B002B002B002B002B002B002B002B0040
:100068002B002B002B002B002B002B002B002B0030
:100078002B002B002B002B002B002B002B002B0020
:100088002B002B002B002B002B002B002B002B0010
:100098002B002B002B002B002B002B002B002B0000
:0A00A8002B002B00FF00A6EF11F063
:102000000000CCA806EF10F008EF10F0AEEF10F0D3
:102010000550D96EDA6A0750DE1807E10850DE185D
:10202000D8A415EF10F017EF10F050EF10F0065095
:10203000D96EDA6A0950DE1807E10A50DE18D8A412
:1020400024EF10F026EF10F050EF10F00450D96E8E
:10205000DA6ADE04DE10D8A430EF10F032EF10F0B0
:1020600050EF10F0CA88060E0C6E130E0B6EAE0EFB
:10207000E82EFED70B2EFCD70C2EFAD7CA980550A7
:10208000D96EDA6ADE6ADD6A0650D96EDA6ADE6A0D
:10209000DD6A0450D96EDA6ADE6ADD6AA7EF10F0F5
:1020A0000450D96EDA6ADE04DE10D8A45AEF10F0BC
:1020B0005CEF10F089EF10F00550D96EDA6ADE6A35
:1020C000DD6A0650D96EDA6ADE6ADD6A0450D96EBE
:1020D000DA6ADE6ADD6ACA82020E0C6E040E0B6ECC
:1020E000BA0EE82EFED70B2EFCD70C2EFAD700D056
:1020F000CA92CA86050E0C6E0F0E0B6EF10EE82EFC
:10210000FED70B2EFCD70C2EFAD70000CA96A7EFED
:1021100010F0CA82020E0C6E040E0B6EBA0EE82E80
:10212000FED70B2EFCD70C2EFAD700D0CA92045043
:10213000D96EDA6A010EDE6E000EDD6EA7EF10F0CA
:102140000D0E0B6EFC0EE82EFED70B2EFCD7CCB876
:10215000ACEF10F0AEEF10F0A0EF10F01200D4ECE6
:1021600011F01B6A010E1A6E1D6A010E1C6E236AA5
:10217000000E226E1F6A000E1E6E216A000E206E77
:102180003850D8B4C6EF10F0C8EF10F0D2EF10F00E
:102190001F6A000E1E6E216A000E206E236A000E5A
:1021A000226E386A22C004F023C005F01E0E066EAF
:1021B0004BEC11F022502310D8A4E1EF10F0E3EF24
:1021C00010F0E9EF10F01EC004F01FC005F0C1ECE4
:1021D00011F022C004F023C005F0200E066E14ECAE
:1021E00011F0220E046E1E0E056E200E066E1AC031
:1021F00007F01BC008F01CC009F01DC00AF001EC7C
:1022000010F022042310D8A408EF11F00AEF11F007
:10221000C0EF10F020C004F021C005F0C1EC11F0B7
:10222000C0EF10F057EF00F0CCA619EF11F01BEF44
:1022300011F04AEF11F004040510D8A422EF11F0B8
:1022400024EF11F04AEF11F00650D96EDA6A6F00F0
:1022500078FF07F06F0074FF08F0010E0726000EEC
:1022600008220650D96EDA6A60001FF0DEFF6000B7
:1022700023F0DDFF43EF11F00D0E076EFC0EE82E8C
:10228000FED7072EFCD7CCB648EF11F04AEF11F07D
:102290003CEF11F01200CCA450EF11F052EF11F00E
:1022A00081EF11F004500510D8A459EF11F05BEF45
:1022B00011F081EF11F00650D96EDA6A6F0078FFE5
:1022C00007F06F0074FF08F0010E0726000E0822C9
:1022D0000650D96EDA6A60001FF0DEFF600023F05E
:1022E000DDFF7AEF11F00D0E076EFC0EE82EFED723
:1022F000072EFCD7CCB47FEF11F081EF11F073EF14
:1023000011F01200036A000E026ECA86820E016E80
:10231000DE0EE82EFED7012EFCD7CA96820E016E85
:10232000DE0EE82EFED7012EFCD7024A032A03BE9A
:10233000A3EF11F0035009E1040E025CD8A0A3EF53
:1023400011F0A5EF11F085EF11F01200CE0EF66E30
:10235000230EF76E000EF86E00EE24F010EE14F06F
:1023600009006F00D7FFEEFFE550E150F9E1386A50
:10237000080ED56E000ED66E000ED76E0001AFEFC0
:1023800010F020EE24F010EE06F0130E6F006FFF39
:10239000E3FFE806FBE20450020DF350060FD96E8E
:1023A000DA6ADF50CD6E12003A01506B406B706BF1
:1023B000606BC26ACA6A010EC36E1C0EC46EC56A27
:1023C000CD6AD2803901A1919181D28E12003F0055
:1023D00006005B004F0066006D007D0007007F0077
:0223E0006F008C
:0E23E400010E386E82EC11F03901A19111004A
:020000040030CA
:0A000000F8FFFFFF9FFFFFFFFFFF67
:00000001FF
