:10002000C56ACD6AFB0E216E0F0E206E2050236E26
:10003000606B616B626B640E235CD8A024EF00F0F0
:10004000236E622B1BEF00F00A0E235CD8A02DEF6D
:1000500000F0236E612B24EF00F02350606F2150DD
:10006000236E23AE36EF00F0231E232A706B716BD4
:10007000726B640E235CD8A042EF00F0236E722BEB
:1000800039EF00F00A0E235CD8A04BEF00F0236E8E
:10009000712B42EF00F02350706F2150205CD8B4D8
:1000A00063EF00F0D8A057EF00F05DEF00F0020E14
:1000B000226E020ECD6E4DEF00F0010E226E040E88
:1000C000CD6E4DEF00F0226A000ECD6E4DEF00F0C8
:020000040030CA
:0A000000F8FFFFFF9FFFFFFFFFFF67
:00000001FF
