:040000000DEF00F010
:0400080055EF11F0AF
:06001800FF0017EF12F0DB
:102000000054494C54494E472052494748540054C3
:10201000494C54494E47204C454654005348414B87
:10202000494E4700464C415400001950265C206E32
:102030001A502758216E8CEC11F020C02CF021C0D2
:102040002DF01750285C206E18502958216E8CEC0A
:1020500011F020C02EF021C02FF015502A5C206E08
:1020600016502B58216E8CEC11F020C030F021C09E
:1020700031F026C019F027C01AF028C017F029C087
:1020800018F02AC015F02BC016F03DEC12F02DBE52
:1020900055EF10F02D5007E1650E2C5CD8B053EFD2
:1020A00010F055EF10F071EF10F02FBE63EF10F04D
:1020B0002F5007E1650E2E5CD8B061EF10F063EF92
:1020C00010F071EF10F031BE6FEF10F0315009E1F8
:1020D000650E305CD8A06FEF10F071EF10F07AEF62
:1020E00010F0000E226E1C0E236E010EA6EC11F0F5
:1020F000A9EF10F0B50E265C050E2758D8A083EF87
:1021000010F085EF10F08EEF10F0000E226E0F0E23
:10211000236E010EA6EC11F0A9EF10F0500E265C14
:10212000050E2758D8B097EF10F099EF10F0A2EFF6
:1021300010F0000E226E010E236E010EA6EC11F0BF
:10214000A9EF10F0000E226E240E236E010EA6ECF5
:1021500011F01200A30E216E550EE82EFED7212E8F
:10216000FCD70000BD90BD92BB6A110E216E3A0EE5
:10217000E82EFED7212EFCD700D0300E2AEC12F02C
:10218000040E216E3E0EE82EFED7212EFCD7300E17
:102190002AEC12F0040E216E3E0EE82EFED7212E00
:1021A000FCD7300E2AEC12F0040E216E3E0EE82E03
:1021B000FED7212EFCD7380E2AEC12F0040E216E29
:1021C0003E0EE82EFED7212EFCD7080E2AEC12F088
:1021D000FA0E00D0E82EFDD7010E2AEC12F0040E04
:1021E000216E3E0EE82EFED7212EFCD7060E2AECDD
:1021F00012F0FA0E00D0E82EFDD70C0E2AEC12F0E9
:10220000FA0E00D0E82EFDD712003A01506B706B29
:10221000C36AC56ABB6ABD6A7095C594BD94609770
:10222000C486CC506587668767973901A09F908FD9
:10223000D29AD28E03EC12F0A30E326E550EE82E17
:10224000FED7322EFCD70000AAEC10F0010ED7EC1E
:1022500011F020C033F021C034F0020ED7EC11F0A1
:1022600020C035F021C036F0030ED7EC11F020C0AD
:1022700037F021C038F033C026F034C027F035C025
:1022800028F036C029F037C02AF038C02BF015EC02
:1022900010F0310E326EB20EE82EFED7322EFCD781
:1022A00000D026EF11F00DEF00F03901A0AF5BEF89
:1022B00011F05DEF11F08BEF11F03A0167A763EFBA
:1022C00011F065EF11F089EF11F067971F6A000EAA
:1022D0001E6EBD84520E1D6E2A0EE82EFED71D2ED8
:1022E000FCD7BD94520E1D6E2A0EE82EFED71D2E71
:1022F000FCD71E4A1F2A1FBE87EF11F01F5009E1AD
:10230000140E1E5CD8A087EF11F089EF11F069EF71
:1023100011F03901A09F110021BE91EF11F093EF50
:1023200011F099EF11F020C020F021C021F0A5EFAD
:1023300011F020C022F021C023F0221E231E224AC9
:10234000232A22C020F023C021F01200246E24048E
:10235000D8A4ADEF11F0AFEF11F0B4EF11F02250AF
:10236000800F256EB7EF11F02250C00F256E25505B
:102370002AEC12F023C021F0BFEC11F01200C9EFDB
:1023800011F0600087F0F6FF0800F550EFEC11F057
:10239000212A600087F0F6FF0800F5500009D8A454
:1023A000D4EF11F0D6EF11F0C1EF11F01200246E4E
:1023B000600093F0F1FEA60EE82EFED700D03E019D
:1023C000F881F8B1E6EF11F0E8EF11F0E1EF11F06C
:1023D000F051226EEF51206E22C021F01200206ECB
:1023E000600083F0BBFFBD80530EE82EFED70000D7
:1023F000BD82530EE82EFED70000BD92A60EE82E39
:10240000FED700D01200C282C284C2863A01408345
:10241000408540873E01F851F30B0409F86FF889B5
:10242000FF6BF66BF76BF36BF46BF88F120000EE3B
:1024300001F01C0EEE6AE806FDE1080ED56E000EF6
:10244000D66E000ED76E000EF86E200EF76E0001ED
:1024500005EF11F0206E600083F0BBFFBD90530EBE
:10246000E82EFED70000BD82530EE82EFED70000F6
:10247000BD92FA0EE82EFED71200010E2AEC12F0E1
:0A248000FA0E00D0E82EFDD712007E
:020000040030CA
:0A000000ECDFF7FF9FFFFFFFFFFF9B
:00000001FF
