:0400000057EF20F0A6
:022000000000DE
:104008002B102B102B102B102B102B102B102B10D0
:104018002D102B102B102B102B102B102B102B10BE
:104028002B102B102B102B102B102B102B102B10B0
:104038002B102B102B102B102B102B102B102B10A0
:104048002B102B102B102B102B102B102B102B1090
:104058002B102B102B102B102B102B102B102B1080
:104068002B102B102B102B102B102B102B102B1070
:104078002B102B102B102B102B102B102B102B1060
:104088002B102B102B102B102B102B102B102B1050
:104098002B102B102B102B102B102B102B102B1040
:0A40A8002B102B10FF00C7EF20F0D3
:1040B4003901A1A160EF20F062EF20F090EF20F031
:1040C400046A000E036ECD80020E026E450E016E70
:1040D400AA0EE82EFED7012EFCD7022EFAD7CD90D9
:1040E400020E026E450E016EAA0EE82EFED7012EB8
:1040F400FCD7022EFAD7034A042A04BE8BEF20F021
:10410400045009E10A0E035CD8A08BEF20F08DEF78
:1041140020F065EF20F03901A191CD901100C590F8
:10412400C592C3803A017091709350915181B9EC5A
:1041340020F0CD82020E066E040E056EBA0EE82E35
:10414400FED7052EFCD7062EFAD700D0CD92020E4C
:10415400066E040E056EBA0EE82EFED7052EFCD7A9
:10416400062EFAD700D09BEF20F057EF20F0D28A2A
:10417400D28ED28CD280390181819181A191D76A6A
:10418400400ED66E080ED56E1200080ED56E400E87
:0C419400D66E000ED76E000191EF20F0F7
:020000040030CA
:0A000000F8FFFFFF9FFFFFFFFFFF67
:00000001FF
