:0400000057EF20F0A6
:022000000000DE
:104008002B102B102B102B102B102B102B102B10D0
:104018002D102B102B102B102B102B102B102B10BE
:104028002B102B102B102B102B102B102B102B10B0
:104038002B102B102B102B102B102B102B102B10A0
:104048002B102B102B102B102B102B102B102B1090
:104058002B102B102B102B102B102B102B102B1080
:104068002B102B102B102B102B102B102B102B1070
:104078002B102B102B102B102B102B102B102B1060
:104088002B102B102B102B102B102B102B102B1050
:104098002B102B102B102B102B102B102B102B1040
:0A40A8002B102B10FF0099EF20F001
:1040B4003901A1A160EF20F062EF20F07AEF20F047
:1040C400026A000E016ECD80CD90014A022A02BE22
:1040D40075EF20F0025009E10A0E015CD8A075EFDB
:1040E40020F077EF20F065EF20F03901A191CD9019
:1040F4001100C590C592C3803A017091709350919C
:1041040051818BEC20F0BD82BD9285EF20F057EFFA
:1041140020F0D28AD28ED28CD280390181819181D1
:10412400A191D76A400ED66E080ED56E1200080E05
:10413400D56E400ED66E000ED76E00017BEF20F0D8
:020000040030CA
:0A000000F8FFFFFF9FFFFFFFFFFF67
:00000001FF
