:04000000FEEFFFF020
:1020000000AC260000000000000050290000000085
:102010000228000000000000000000000000000096
:1020200000000000000000000000000000000000B0
:10203000000000000000000000000000006E28000A
:0F2040004C28002A280000000025640D0A00002B
:102050001F50D96EDA6A6F007FFFF6FF200EF76E11
:10206000000EF86E0800F550250AD8A43AEF10F0DB
:102070003CEF10F0FCEF10F01F50D96EDA6ADF2A47
:10208000476A000E466E46C04CF0486849681F50CB
:10209000D96EDA6ADF50236E60008FF0F6FF200EF3
:1020A000F76E000EF86E0800F550640AD8B45BEFC6
:1020B00010F05DEF10F06EEF10F060008FF0F6FFA3
:1020C000200EF76E000EF86E0800F550690AD8A4CD
:1020D0006CEF10F06EEF10F0F6EF10F02050D96EAC
:1020E000DA6A020EDF26DF5CD96EDA6A6F0078FFEB
:1020F00024F06F0078FF25F01F50D96EDA6A23288C
:10210000DF6E200E286E25BE88EF10F08BEF10F0EA
:10211000010E8CEF10F0000E226E28062850600F82
:10212000D96EDA6A24C013F025C014F0166A0A0EBC
:10213000156EDFEC11F013C019F014C01AF0E7ECC3
:1021400013F01950300FDF6E24C001F025C002F0EB
:10215000046A0A0E036E7FEC11F001C024F002C085
:1021600025F024502510D8B4B8EF10F0BAEF10F0D5
:10217000C2EF10F02850D8A4C0EF10F0C2EF10F05A
:102180008DEF10F02850D8B4C8EF10F0CAEF10F05F
:10219000EBEF10F02250D8B4D0EF10F0D2EF10F0E7
:1021A000EBEF10F028062850600FD96EDA6A2D0E7A
:1021B000DF6EEBEF10F02850600FD96EDA6ADF5057
:1021C000216E2150036E046A1DC005F01EC006F08A
:1021D00013EC11F0282A200E2818D8A4F2EF10F0E2
:1021E000F4EF10F0DBEF10F012EF11F01F50D96E8A
:1021F000DA6ADF2A12EF11F01F50D96EDA6A6F0027
:102200007FFFF6FF200EF76E000EF86E0800F55007
:10221000036E046A1DC005F01EC006F013EC11F039
:10222000F6EF10F0120005500610D8B41AEF11F0B6
:102230001CEF11F025EF11F005500610D8A423EF84
:1022400011F025EF11F02AEF11F0035048EC14F0D3
:102250007EEF11F020EE09F00550D9260650DA2263
:10226000DE50DE10D8B437EF11F039EF11F054EF33
:1022700011F020EE09F00550D9260650DA2210EEB2
:1022800002F00550E1260650E222DE50E65CE65000
:10229000800A0B6EDE50800A0B58D8B052EF11F056
:1022A00054EF11F07EEF11F020EE02F00550D92628
:1022B0000650DA226F0078FF07F06F0074FF08F015
:1022C000600017F0D9FF60001BF0DAFF6F0078FFA5
:1022D00009F06F0074FF0AF007500924D96E085006
:1022E0000A20DA6E60000FF0DFFF20EE02F00550EA
:1022F000D9260650DA22DE2A000EDD221200066AF6
:1023000004BE87EF11F085EF11F08DEF11F0036C33
:10231000041ED8B0042A010E066E02BE94EF11F01E
:1023200092EF11F09AEF11F0016C021ED8B0022A60
:10233000010E061A086A000E076E03500410D8B486
:10234000A4EF11F0A6EF11F0CEEF11F0010E056E23
:10235000AEEF11F0D89003360436052A04AEB3EF81
:1023600011F0B5EF11F0AAEF11F0D890073608364A
:102370000350015C04500258D8A0C1EF11F0C3EF24
:1023800011F0C8EF11F00350015E0450025A0780AB
:10239000D89004320332052EB5EF11F00650D8B4B0
:1023A000D4EF11F0D6EF11F0DAEF11F0076C081E40
:1023B000D8B0082A07C001F008C002F01200186A5D
:1023C00014BEE7EF11F0E5EF11F0EDEF11F0136C33
:1023D000141ED8B0142A010E186E16BEF4EF11F0B8
:1023E000F2EF11F0F8EF11F0156C161ED8B0162AA6
:1023F00015501610D8B4FFEF11F001EF12F025EFD1
:1024000012F0010E176E09EF12F0D890153616363D
:10241000172A16AE0EEF12F010EF12F005EF12F0C1
:102420001550135C16501458D8A019EF12F01BEF7A
:1024300012F01FEF12F01550135E1650145AD89078
:1024400016321532172E10EF12F01850D8B42BEFA9
:1024500012F02DEF12F031EF12F0136C141ED8B001
:10246000142A13C013F014C014F01200236A000ED3
:10247000226E216A000E206E1B50195C1A50800AD1
:102480001D6E1C50800A1D58D8B049EF12F04BEF5A
:1024900012F057EF12F019C022F01AC023F0010E0B
:1024A0001B24206E000E1C20216E61EF12F0010E25
:1024B0001B24226E000E1C20236E19C020F01AC0AF
:1024C00021F0BBEC12F00DC013F00EC014F022503E
:1024D000205C156E23502158166EDFEC11F022504F
:1024E00013241E6E235014201F6E1EC019F01FC02F
:1024F0001AF01200BA6ABB6ABC6ABD6ABE6A3A01C7
:10250000426B526B626B726B826BC268C368C46849
:10251000FE0EC56E070EC66E406950696069FC0EFE
:10252000706F070E806F416B516B616B716B816BCC
:102530004369536963697369070E836F446954691A
:10254000646974690F0E846F5A6B5B6B6A6B6B6B9B
:102550007A6B7B6B190EE86F160E186F456B466B26
:10256000476B556B566B576B656B666B676B856B13
:10257000866B876B12004DC001F04EC002F04FC059
:1025800003F050C004F02D0E056E7F0E066E950E02
:10259000076E4C0E086EF1EC12F0010E01244D6E28
:1025A000000E02204E6E000E03204F6E000E04201F
:1025B000506E4DC00FF04EC010F04FC011F050C023
:1025C00012F0120EE9EF12F0D890123211321032DE
:1025D0000F32E82EE4EF12F00FC00DF010C00EF035
:1025E0001200000E096E000E0A6E000E0B6E000E39
:1025F0000C6E01A0FEEF12F000EF13F008EF13F0E5
:102600000550092606500A2207500B2208500C22BA
:10261000D8900536063607360836D890043203328D
:10262000023201320150021003100410D8A41BEF33
:1026300013F01DEF13F0F9EF12F009C001F00AC01A
:1026400002F00BC003F00CC004F0120081EC14F097
:1026500056EC13F0000E016E000E026ECBEC13F080
:1026600001C005F002C006F067EC14F0490E2E6EB2
:102670001A6A010E196E1C6A640E1B6E36EC12F09B
:1026800019C02FF01AC030F074EC14F0520E336EF3
:102690002B0E326E000EE82EFED7322EFCD7332ED4
:1026A000FAD700D036EF13F0FEEFFFF03D01D46B08
:1026B000D66BD86BB00EDA6F800EDB6FDC6B820EE0
:1026C000DD6F060EDE6F2E0EDF6FE06B800EE16FAA
:1026D000E26B000E016E000E026E000E036E37EC10
:1026E00014F0000E016E000E026E000E036E26EC5A
:1026F00014F0000E016E000E026E000E036E15EC5B
:1027000014F04B6A000E4A6E12002BC02DF093EFAE
:1027100013F029C01DF02AC01EF02D0E1F6E2CC014
:1027200020F028EC10F06000B7F0F6FF200EF76EF6
:10273000000EF86E0800F5500009D8A4A2EF13F0BF
:10274000A4EF13F089EF13F02A6A000E296E12002D
:10275000D29A3901A191D280000E016E000E026E54
:10276000000E036EA1EC14F03901A591D282000E87
:10277000016E000E026E000E036E9AEC14F0390129
:10278000A79BD284000E016E000E026E000E036E37
:1027900093EC14F0120001500210D8B4D2EF13F0F1
:1027A000D4EF13F0E2EF13F0600007F0D9FF600000
:1027B0000BF0DAFFFF0EDE6EFF0EDE6EFF0EDE6E3A
:1027C000FF0EDD6E016802680368046812001ABE1D
:1027D000ECEF13F0EEEF13F0F4EF13F019C019F073
:1027E0001AC01AF000EF14F019C01BF01AC01CF048
:1027F0001B1E1C1E1B4A1C2A1BC019F01CC01AF0F1
:102800001200016A3D01DFAB08EF14F00AEF14F08B
:1028100013EF14F0DAAB0FEF14F011EF14F013EF25
:1028200014F0010E016E015012000150021003104D
:10283000D8B41DEF14F01FEF14F025EF14F001C011
:1028400034F002C035F003C036F01200015002101F
:102850000310D8B42EEF14F030EF14F036EF14F06C
:1028600001C037F002C038F003C039F01200015047
:1028700002100310D8B43FEF14F041EF14F047EF0B
:1028800014F001C03AF002C03BF003C03CF012006B
:10289000026E01EC14F00009D8B451EF14F053EFBC
:1028A00014F049EF14F002C001F0A8EC14F012008B
:1028B00000EE60F0200EEE6AE806FDE100EE34F076
:1028C0001D0EEE6AE806FDE1000126EF13F0FF0E93
:1028D0000524076EFF0E0620086E07C04DF008C0E5
:1028E0004EF04F6A506A12002F0E316E000E296EA4
:1028F000000E2A6E2EC02BF0310E2C6E85EC13F0DC
:1029000012008AEC14F07AEC12F056EC13F0A8ECFA
:1029100013F01200600E3901D96FDB6BDD6B080E0E
:10292000DF6FDE6B120001C03DF002C03EF003C05D
:102930003FF0120001C040F002C041F003C042F07D
:10294000120001C043F002C044F003C045F0120081
:08295000600007F0D2FD120047
:020000040001F9
:04FFFC0058EF14F0B6
:020000040030CA
:0A0000008FFFF7FF9FFFFFFFFFFFD8
:00000001FF
