:04000000FEEFFFF020
:1020000000003901DC8D020EDF6F3A01506BC36AAC
:10201000CB6A61EC11F097EC11F03A01706B030E92
:10202000C56E70EC11F07FEC11F01EC001F01FC006
:1020300002F049EC11F01EC001F01FC002F020C0F8
:1020400003F021C004F0640E056E000E066E000E53
:10205000076E000E086EFCEC10F001C00DF002C01F
:102060000EF003C00FF004C010F0AB501A6E1B6AE4
:10207000D8901A361B36D8901A361B36040E1A26FC
:10208000000E1B221AC011F01BC012F0000E12BE6F
:10209000FF0E136E146EAAEC10F00DC022F00EC0ED
:1020A00023F0AC380F0B0F0B256E8AEC11F0246E69
:1020B00024B002D0CB9401D0CB84CDA262EF10F03B
:1020C00064EF10F082EF10F01DBE70EF10F01D50A5
:1020D00009E10B0E1C5CD8A070EF10F072EF10F04D
:1020E00075EF10F01C06D8A01D061CC001F01DC025
:1020F00002F049EC11F05B0E1A6EE80EE82EFED7E6
:102100001A2EFCD7CDA087EF10F089EF10F055EF15
:1021100010F01DBE97EF10F01D5007E14E0E1C5C35
:10212000D8B095EF10F097EF10F099EF10F01C4A2F
:102130001D2A1CC001F01DC002F049EC11F05B0E1D
:102140001A6EE80EE82EFED71A2EFCD755EF10F0C7
:10215000FEEFFFF0000E156E000E166E000E176EED
:10216000000E186E1150121013101410D8B4BBEFDB
:1021700010F0BDEF10F0F3EF10F0010E196EC7EF85
:1021800010F0D8901136123613361436192A14AEC0
:10219000CCEF10F0CEEF10F0C1EF10F0D890153664
:1021A00016361736183611500D5C12500E58135053
:1021B0000F5814501058D8A0E0EF10F0E2EF10F0D4
:1021C000EBEF10F011500D5E12500E5A13500F5AD3
:1021D0001450105A1580D890143213321232113222
:1021E000192ECEEF10F015C00DF016C00EF017C06E
:1021F0000FF018C010F01200000E096E000E0A6EEB
:10220000000E0B6E000E0C6E01A009EF11F00BEF2B
:1022100011F013EF11F00550092606500A2207505D
:102220000B2208500C22D8900536063607360836A1
:10223000D8900432033202320132015002100310EE
:102240000410D8A426EF11F028EF11F004EF11F0DC
:1022500009C001F00AC002F00BC003F00CC004F08A
:102260001200280EF66E230EF76E000EF86E00EECA
:102270001CF010EE06F009006F00D7FFEEFFE550EE
:10228000E150F9E1256A246A236A226A000101EF1C
:1022900010F0FF0E0116030E02167AA852EF11F08D
:1022A00054EF11F05BEF11F0060ED89001360236B4
:1022B000E82E55EF11F00250796E600007F078FFBC
:1022C0001200010EAE6EAD6AAF6A9C0EAB6EAA6ACA
:1022D0003901A495AC8E700EAC12F00EAC16120043
:1022E000550E3A01BF6FAA0EBF6FBF910A0E0B6F5A
:1022F000C396550EBF6FAA0EBF6FBF8112008C0E22
:102300007A6E796A0F0E786E3F015E51F30B040905
:102310005E6F12007ABA8FEF11F092EF11F0010E9A
:1023200093EF11F0000E12002F002F0000009AEC26
:0823300011F01200AC8E120046
:020000040001F9
:04FFFC0031EF11F0E0
:020000040030CA
:0A000000F8FFFFFF9FFFFFFFFFFF67
:00000001FF
