:020000040001F9
:10FECA0067EFFFF03A01406B3A01706B3A01416B00
:10FEDA003A01426B3A01726B3F01BA6A3F01BD6A4D
:10FEEA003F01030EC26E3F01C56A206AC1ECFFF0F2
:10FEFA00B9ECFFF0ACECFFF0000E216287EFFFF0E7
:10FF0A007FEFFFF0030E216292EFFFF0206AB9EC57
:10FF1A00FFF0E5ECFFF07FEFFFF0010E21629FEFAB
:10FF2A00FFF0202A0F0E2016B9ECFFF0E5ECFFF0E7
:10FF3A007FEFFFF0020E21627FEFFFF020060F0E27
:10FF4A002016B9ECFFF0E5ECFFF07FEFFFF03F0180
:10FF5A00CA50030B216EF5ECFFF03F01CA50030BA8
:10FF6A002162ACEFFFF01200300EE96EEA6A20500F
:10FF7A00EB503F01BD6E1200300EE96EEA6A3F0E89
:10FF8A00EE6E060EEE6E5B0EEE6E4F0EEE6E660EA9
:10FF9A00EE6E6D0EEE6E7D0EEE6E070EEE6E7F0E3F
:10FFAA00EE6E6F0EEE6E770EEE6E7C0EEE6E390E04
:10FFBA00EE6E5E0EEE6E790EEE6E710EEE6E120043
:10FFCA00080E226EFF0E236EFF0E246E242EEBEF18
:10FFDA00FFF0232EE9EFFFF0222EE7EFFFF01200E9
:10FFEA00400E256EFF0E266E262EF9EFFFF0252E07
:06FFFA00F7EFFFF012001A
:020000040030CA
:0A0000008CFFFFFF9FFFFFDFFFFFF3
:00000001FF
